{
  "contractName": "HydraExchangeEthToken",
  "abi": [
    {
      "inputs": [
        {
          "name": "_token",
          "type": "address"
        },
        {
          "name": "_amount_eth",
          "type": "uint256"
        },
        {
          "name": "_amount_token",
          "type": "uint256"
        },
        {
          "name": "_recipient_eth",
          "type": "address"
        },
        {
          "name": "_recipient_token",
          "type": "address"
        }
      ],
      "payable": false,
      "stateMutability": "nonpayable",
      "type": "constructor"
    },
    {
      "constant": true,
      "inputs": [],
      "name": "get_deposit_amount_eth",
      "outputs": [
        {
          "name": "",
          "type": "uint256"
        }
      ],
      "payable": false,
      "stateMutability": "view",
      "type": "function"
    },
    {
      "constant": true,
      "inputs": [],
      "name": "get_deposit_amount_token",
      "outputs": [
        {
          "name": "",
          "type": "uint256"
        }
      ],
      "payable": false,
      "stateMutability": "view",
      "type": "function"
    },
    {
      "constant": false,
      "inputs": [],
      "name": "release_funds",
      "outputs": [],
      "payable": false,
      "stateMutability": "nonpayable",
      "type": "function"
    }
  ],
  "bytecode": "0x608060405234801561001057600080fd5b5060405160a0806105178339810180604052810190808051906020019092919080519060200190929190805190602001909291908051906020019092919080519060200190929190505050846000806101000a81548173ffffffffffffffffffffffffffffffffffffffff021916908373ffffffffffffffffffffffffffffffffffffffff160217905550836001819055508260028190555081600360006101000a81548173ffffffffffffffffffffffffffffffffffffffff021916908373ffffffffffffffffffffffffffffffffffffffff16021790555080600460006101000a81548173ffffffffffffffffffffffffffffffffffffffff021916908373ffffffffffffffffffffffffffffffffffffffff16021790555050505050506103d88061013f6000396000f300608060405260043610610057576000357c0100000000000000000000000000000000000000000000000000000000900463ffffffff1680636d047b031461005c5780637dd696c614610087578063d95b7b81146100b2575b600080fd5b34801561006857600080fd5b506100716100c9565b6040518082815260200191505060405180910390f35b34801561009357600080fd5b5061009c6100e8565b6040518082815260200191505060405180910390f35b3480156100be57600080fd5b506100c76101e6565b005b60003073ffffffffffffffffffffffffffffffffffffffff1631905090565b60008060009054906101000a900473ffffffffffffffffffffffffffffffffffffffff1673ffffffffffffffffffffffffffffffffffffffff166370a08231306040518263ffffffff167c0100000000000000000000000000000000000000000000000000000000028152600401808273ffffffffffffffffffffffffffffffffffffffff1673ffffffffffffffffffffffffffffffffffffffff168152602001915050602060405180830381600087803b1580156101a657600080fd5b505af11580156101ba573d6000803e3d6000fd5b505050506040513d60208110156101d057600080fd5b8101908080519060200190929190505050905090565b6000806101f16100c9565b91506101fb6100e8565b9050600154821015151561020b57fe5b600254811015151561021957fe5b600360009054906101000a900473ffffffffffffffffffffffffffffffffffffffff1673ffffffffffffffffffffffffffffffffffffffff166108fc6001549081150290604051600060405180830381858888f19350505050158015610283573d6000803e3d6000fd5b506000809054906101000a900473ffffffffffffffffffffffffffffffffffffffff1673ffffffffffffffffffffffffffffffffffffffff1663a9059cbb600460009054906101000a900473ffffffffffffffffffffffffffffffffffffffff166002546040518363ffffffff167c0100000000000000000000000000000000000000000000000000000000028152600401808373ffffffffffffffffffffffffffffffffffffffff1673ffffffffffffffffffffffffffffffffffffffff16815260200182815260200192505050602060405180830381600087803b15801561036c57600080fd5b505af1158015610380573d6000803e3d6000fd5b505050506040513d602081101561039657600080fd5b81019080805190602001909291905050505050505600a165627a7a72305820799baa2d8a82da4ed3109641bd2e9c3dff602911b213fdc32300c9029cf72de40029",
  "source": "pragma solidity ^0.4.22;\n\nimport \"openzeppelin-solidity/contracts/token/ERC20/StandardToken.sol\";\n\ncontract HydraExchangeFactory {\n    function create_contract_eth_token(ERC20 token, uint amount_eth, uint amount_token, address recipient_eth, address recipient_token) public returns (address) {\n        address cont=new HydraExchangeEthToken(token,amount_eth,amount_token,recipient_eth,recipient_token);\n        return cont;\n    }\n}\n\ncontract HydraExchangeEthToken {\n\tERC20 token;\n    uint amount_eth;\n    uint amount_token;\n    address recipient_eth;\n    address recipient_token;\n\n    constructor(ERC20 _token,uint _amount_eth,uint _amount_token,address _recipient_eth,address _recipient_token) public {\n\t\ttoken=_token;\n        amount_eth=_amount_eth;\n        amount_token=_amount_token;\n        recipient_eth=_recipient_eth;\n        recipient_token=_recipient_token;\n    }\n\n    function get_deposit_amount_eth() public view returns (uint) {\n        return address(this).balance;\n    }\n\n    function get_deposit_amount_token() public view returns (uint) {\n        return token.balanceOf(address(this));\n    }\n\n    function release_funds() public {\n        uint deposit_amount_eth=get_deposit_amount_eth();\n        uint deposit_amount_token=get_deposit_amount_token();\n        assert(deposit_amount_eth>=amount_eth);\n        assert(deposit_amount_token>=amount_token);\n        recipient_eth.transfer(amount_eth);\n        token.transfer(recipient_token,amount_token);\n    }\n}\n",
  "sourcePath": "/Users/davidjanssens/stuff/hydrax-contracts/contracts/HydraExchangeEthToken.sol",
  "compiler": {
    "name": "solc",
    "version": "0.4.24+commit.e67f0147.Emscripten.clang"
  },
  "schemaVersion": "2.0.1",
  "updatedAt": "2018-09-08T12:52:18.878Z"
}