{
  "contractName": "HydraContractExchangeEthToken",
  "abi": [
    {
      "inputs": [
        {
          "name": "_token",
          "type": "address"
        },
        {
          "name": "_amount_eth",
          "type": "uint256"
        },
        {
          "name": "_amount_token",
          "type": "uint256"
        },
        {
          "name": "_recipient_eth",
          "type": "address"
        },
        {
          "name": "_recipient_token",
          "type": "address"
        }
      ],
      "payable": false,
      "stateMutability": "nonpayable",
      "type": "constructor"
    },
    {
      "payable": true,
      "stateMutability": "payable",
      "type": "fallback"
    },
    {
      "constant": true,
      "inputs": [],
      "name": "get_deposit_amount_eth",
      "outputs": [
        {
          "name": "",
          "type": "uint256"
        }
      ],
      "payable": false,
      "stateMutability": "view",
      "type": "function"
    },
    {
      "constant": true,
      "inputs": [],
      "name": "get_deposit_amount_token",
      "outputs": [
        {
          "name": "",
          "type": "uint256"
        }
      ],
      "payable": false,
      "stateMutability": "view",
      "type": "function"
    },
    {
      "constant": false,
      "inputs": [],
      "name": "release_funds",
      "outputs": [],
      "payable": false,
      "stateMutability": "nonpayable",
      "type": "function"
    }
  ],
  "bytecode": "0x608060405234801561001057600080fd5b5060405160a0806105148339810180604052810190808051906020019092919080519060200190929190805190602001909291908051906020019092919080519060200190929190505050846000806101000a81548173ffffffffffffffffffffffffffffffffffffffff021916908373ffffffffffffffffffffffffffffffffffffffff160217905550836001819055508260028190555081600360006101000a81548173ffffffffffffffffffffffffffffffffffffffff021916908373ffffffffffffffffffffffffffffffffffffffff16021790555080600460006101000a81548173ffffffffffffffffffffffffffffffffffffffff021916908373ffffffffffffffffffffffffffffffffffffffff16021790555050505050506103d58061013f6000396000f300608060405260043610610057576000357c0100000000000000000000000000000000000000000000000000000000900463ffffffff1680636d047b03146100595780637dd696c614610084578063d95b7b81146100af575b005b34801561006557600080fd5b5061006e6100c6565b6040518082815260200191505060405180910390f35b34801561009057600080fd5b506100996100e5565b6040518082815260200191505060405180910390f35b3480156100bb57600080fd5b506100c46101e3565b005b60003073ffffffffffffffffffffffffffffffffffffffff1631905090565b60008060009054906101000a900473ffffffffffffffffffffffffffffffffffffffff1673ffffffffffffffffffffffffffffffffffffffff166370a08231306040518263ffffffff167c0100000000000000000000000000000000000000000000000000000000028152600401808273ffffffffffffffffffffffffffffffffffffffff1673ffffffffffffffffffffffffffffffffffffffff168152602001915050602060405180830381600087803b1580156101a357600080fd5b505af11580156101b7573d6000803e3d6000fd5b505050506040513d60208110156101cd57600080fd5b8101908080519060200190929190505050905090565b6000806101ee6100c6565b91506101f86100e5565b9050600154821015151561020857fe5b600254811015151561021657fe5b600360009054906101000a900473ffffffffffffffffffffffffffffffffffffffff1673ffffffffffffffffffffffffffffffffffffffff166108fc6001549081150290604051600060405180830381858888f19350505050158015610280573d6000803e3d6000fd5b506000809054906101000a900473ffffffffffffffffffffffffffffffffffffffff1673ffffffffffffffffffffffffffffffffffffffff1663a9059cbb600460009054906101000a900473ffffffffffffffffffffffffffffffffffffffff166002546040518363ffffffff167c0100000000000000000000000000000000000000000000000000000000028152600401808373ffffffffffffffffffffffffffffffffffffffff1673ffffffffffffffffffffffffffffffffffffffff16815260200182815260200192505050602060405180830381600087803b15801561036957600080fd5b505af115801561037d573d6000803e3d6000fd5b505050506040513d602081101561039357600080fd5b81019080805190602001909291905050505050505600a165627a7a723058205a6f32529a28b8ba6a96c75e70eadb085980bd4a4e14b1564f7b6fb06ed4abba0029",
  "source": "pragma solidity ^0.4.22;\n\nimport \"openzeppelin-solidity/contracts/token/ERC20/StandardToken.sol\";\n\ncontract HydraContractExchangeEthToken {\n\tERC20 token;\n    uint amount_eth;\n    uint amount_token;\n    address recipient_eth;\n    address recipient_token;\n\n    constructor(ERC20 _token,uint _amount_eth,uint _amount_token,address _recipient_eth,address _recipient_token) public {\n\t\ttoken=_token;\n        amount_eth=_amount_eth;\n        amount_token=_amount_token;\n        recipient_eth=_recipient_eth;\n        recipient_token=_recipient_token;\n    }\n\n    function() public payable { // to allow receive eth\n\t}\n\n    function get_deposit_amount_eth() public view returns (uint) {\n        return address(this).balance;\n    }\n\n    function get_deposit_amount_token() public view returns (uint) {\n        return token.balanceOf(address(this));\n    }\n\n    function release_funds() public {\n        uint deposit_amount_eth=get_deposit_amount_eth();\n        uint deposit_amount_token=get_deposit_amount_token();\n        assert(deposit_amount_eth>=amount_eth);\n        assert(deposit_amount_token>=amount_token);\n        recipient_eth.transfer(amount_eth);\n        token.transfer(recipient_token,amount_token);\n    }\n}\n",
  "sourcePath": "/Users/davidjanssens/stuff/hydrax-contracts/contracts/HydraContractExchangeEthToken.sol",
  "compiler": {
    "name": "solc",
    "version": "0.4.24+commit.e67f0147.Emscripten.clang"
  },
  "schemaVersion": "2.0.1",
  "updatedAt": "2018-09-10T18:24:14.599Z"
}